:100000000C94A7000C94D8000C94C4000C94C40069
:100010000C94C4000C94C4000C94C4000C94C40050
:100020000C94C4000C94E2000C94C4000C94C40022
:100030000C94C4000C94E0060C94C4000C94C4000E
:100040000C94C4000C94C4000C94C4000C94C40020
:100050000C94C40000407A10F35A00A0724E1809A4
:100060000010A5D4E80000E87648170000E40B541F
:10007000020000CA9A3B000000E1F50500008096EE
:100080009800000040420F000000A0860100000020
:10009000102700000000E8030000000064000000DA
:1000A00000000A00000000000100000000002C76A3
:1000B000D888DC674F0823DFC1DFAE59E1B1B796BE
:1000C000E5E3E453C63AE651997696E8E6C284261B
:1000D000EB898C9B62ED407C6FFCEFBC9C9F40F2F7
:1000E000BAA56FA5F490055A2AF75C936B6CF96773
:1000F0006DC11BFCE0E40D47FEF520E6B500D0ED38
:10010000902E0300943577050080841E080000209F
:100110004E0A000000C80C333333330F986E12833D
:100120001141EF8D2114893BE65516CFFEE6DB1811
:10013000D1844B381BF77C1D901DA4BBE4242032D6
:1001400084725E228100C9F124ECA1E53D271124CF
:100150001FBECFE5D8E0DEBFCDBF10E0A0E6B0E027
:10016000ECE4F8E102C005900D92A03BB107D9F78D
:1001700024E0A0EBB0E001C01D92A834B207E1F783
:100180000E94B4060C94240C0C940000379A86B19B
:10019000876086B93E9A089597B18F70907F982BAB
:1001A00097B9369A349BFECF349A84B195B10895AD
:1001B0001F920F920FB60F9211240F900FBE0F9047
:1001C0001F9018951F920F920FB60F9211248F93C4
:1001D0009F9398B381E0892788BB9F918F910F905F
:1001E0000FBE0F901F901895CF93DF931092E100F0
:1001F000C0E080E00E94CC00EC2FF0E0EE0FFF1F8B
:10020000EA58FD4F91838083C091E100D0E081E006
:100210000E94CC00CC0FDD1FCA51DF4F9983888329
:10022000E091E100EF5FE093E100E83C10F4CE2FB5
:10023000E0CFDF91CF9108958EB583608EBD89B7F1
:10024000846089BF7894089578948BB780648BBF5D
:1002500085B7816085BF08950E9424010E94C60071
:100260000E941C0189E190E00E94D306B89A83ECB9
:1002700099E00197F1F700C0000008952F923F9296
:100280004F925F926F927F928F929F92AF92BF92A6
:10029000CF92DF92EF92FF920F931F93CF93DF9352
:1002A000CDB7DEB762970FB6F894DEBF0FBECDBFF5
:1002B0000E94F40037988090D8009090D900A090C8
:1002C000DA00B090DB00C090D400D090D500E09070
:1002D000D600F090D7000F2EF6E02F2EF4E03F2E40
:1002E000F02D06EE10E00F2EF6E76F2EF2E07F2ED7
:1002F000F02DD3016D917D913D01882777FD80958B
:10030000982F0E943F0820E030E040EA50E40E942D
:10031000F30820E030E040E85AE30E94F308282D7B
:10032000392D4A2D5B2D0E946D07862E972EA82E03
:10033000B92EF801619171918F01882777FD809521
:10034000982F0E943F0820E030E040EA50E40E94ED
:10035000F30820E030E040E85AE30E94F3082C2D37
:100360003D2D4E2D5F2D0E946D076214730429F000
:10037000C62ED72EE82EF92EBCCFC62ED72EE82EAD
:10038000F92E20E030E048E453E4682D792D8A2DE1
:100390009B2D0E94D5076D877E878F87988B6093F2
:1003A000D8007093D9008093DA009093DB0020E0AE
:1003B00030E048E453E46C2D7D2D8E2D9F2D0E945E
:1003C000D50769877A878B879C876093D400709361
:1003D000D5008093D6009093D7001092B40010926D
:1003E000B5001092B6001092B700812C912CA12C70
:1003F00006E712E0712C612C512C412C1A8B098BD1
:100400008D82192D0A2D49828D849E84AF84B888EF
:10041000A989BA896D917D91BA8BA98B882777FDBF
:100420008095982F0E943F0820E030E040EA50E499
:100430000E94F30820E030E040E85AE30E94F3080D
:10044000A50194010E946C076B017C01262D352DBE
:10045000442D59810E946D07662E572E482E998390
:10046000A7019601C701B6010E94F3089B01AC01E8
:100470006D81712F802F972D0E946D07E989FA8970
:100480002E163F0629F06D83172F082F792EC0CF27
:10049000762C652C542C4980072D162D252D342DB6
:1004A0000093C0001093C1002093C2003093C3009A
:1004B000062F172F282F392F0093B8001093B9005B
:1004C0002093BA003093BB00E090B400F090B500E8
:1004D0006090B6007090B7000F2EF6E78F2EF2E016
:1004E0009F2EF02D06EE10E0B12CC12CD12CA12CAA
:1004F000C801162D9A838983072DA981BA816D9130
:100500007D91BA83A983882777FD8095982F0E94D3
:100510003F0820E030E040EA50E40E94F30820E089
:1005200030E040E85AE30E94F30829853A854B857C
:100530005C850E946C072B013C019B01AC016B2D7B
:100540007C2D8D2D9A2D0E946D07B62EC72ED82E8C
:10055000A92EA3019201C301B2010E94F3082E2D1E
:100560003F2D412F502F0E946D07E981FA81E81538
:10057000F90529F0E62EF72E182F092FBECFE62E0B
:10058000F72E082F192F8B2D9C2DAD2DBA2D809372
:10059000BC009093BD00A093BE00B093BF008E2D11
:1005A0009F2DA02FB12F8093B4009093B500A093FE
:1005B000B600B093B70020E030E048E453E4609127
:1005C000B8007091B9008091BA009091BB000E9470
:1005D000D5070E945A0969837A838B839C83609331
:1005E000C8007093C9008093CA009093CB0020E0AC
:1005F00030E048E453E46E2D7F2D802F912F0E9430
:10060000D5070E945A096D837E838F8398876093F4
:10061000C4007093C5008093C6009093C7000F2E4E
:10062000F6EE6F2EF0E07F2EF02D0F2EF6E74F2E18
:10063000F2E05F2EF02D10E0E12CF12C00E0C20181
:100640005E2C9A8B898B4F2CA989BA896D917D91EB
:10065000BA8BA98B882777FD8095982F0E943F0839
:1006600020E030E040EA50E40E94F30820E030E06F
:1006700040E85AE30E94F3082D853E854F8558894E
:100680000E946C074B015C01F301619171913F0184
:10069000882777FD8095982F0E943F0820E030E062
:1006A00040EA50E40E94F30820E030E040E85AE3DA
:1006B0000E94F30829853A854B855C850E946C076A
:1006C0006B017C019B01AC01C501B4010E94F308E0
:1006D0009B01AC01612F752D842D902F0E946D0719
:1006E00029893A892216330629F0162F572E482ECB
:1006F000092FAACF28EC2093E0008092D00090929E
:10070000D100A092D200B092D300C092CC00D0927F
:10071000CD00E092CE00F092CF0020E030E048E43F
:1007200053E40E94D5076B017C016093B000709385
:10073000B1008093B2009093B3002D813E814F8130
:10074000588569817A818B819C810E94F3089B0185
:10075000AC01C701B6010E94D5076093DC0070931D
:10076000DD008093DE009093DF008AE790E00E9436
:1007700039076091C8007091C9008091CA009091BA
:10078000CB0023E044E00E944B0784E890E00E9405
:10079000390786E890E00E94390720E030E04AE718
:1007A00054E46091C4007091C5008091C60090919E
:1007B000C7000E94F3086093C4007093C500809343
:1007C000C6009093C70023E044E00E944B078FE8E7
:1007D00090E00E94390782E990E00E943907609119
:1007E000B0007091B1008091B2009091B30025E00B
:1007F00043E00E944B078CE990E00E9439078EE9A4
:1008000090E00E9439076091DC007091DD008091DA
:10081000DE009091DF0023E044E00E944B076296E7
:100820000FB6F894DEBF0FBECDBFDF91CF911F9101
:100830000F91FF90EF90DF90CF90BF90AF909F907F
:100840008F907F906F905F904F903F902F90089582
:100850005F926F927F928F929F92AF92BF92CF9250
:10086000DF92EF92FF920F931F93CF93DF938090CD
:10087000D8009090D900A090DA00B090DB00609191
:10088000760270917702882777FD8095982F0E94D5
:100890003F0820E030E040EA50E40E94F30820E006
:1008A00030E040E85AE30E94F308A50194010E9459
:1008B0006C0720E030E0A9010E94EF0818160CF048
:1008C0006FC081E08093E1006091780270917902BD
:1008D000882777FD8095982F0E943F0820E030E020
:1008E00040EA50E40E94F30820E030E040E85AE398
:1008F0000E94F308A50194010E946C076093D00048
:100900007093D1008093D2009093D30020E030E028
:10091000A9010E94D10788230CF0BBC0B0C06C2E87
:100920007D2EF801619171918F01882777FD809567
:10093000982F0E943F0820E030E040EA50E40E94F7
:10094000F30820E030E040E85AE30E94F308A501F4
:1009500094010E946C076B017C0120E030E0A9014A
:100960000E94D10788235CF4C092D000D092D100BD
:10097000E092D200F092D3005092E10087C05C2E4A
:1009800053942196C83CD10551F6C092D000D09224
:10099000D100E092D200F092D3005092E1006EC0FC
:1009A00081E08093E100609178027091790288275C
:1009B00077FD8095982F0E943F0820E030E040EAC4
:1009C00050E40E94F30820E030E040E85AE30E943F
:1009D000F308A50194010E946C076093D000709306
:1009E000D1008093D2009093D30020E030E0A901A1
:1009F0000E94EF0818160CF054C045C06C2E7D2ED6
:100A0000F801619171918F01882777FD8095982F6A
:100A10000E943F0820E030E040EA50E40E94F308E2
:100A200020E030E040E85AE30E94F308A501940179
:100A30000E946C076B017C0120E030E0A9010E945C
:100A4000EF0818165CF4C092D000D092D100E0926A
:100A5000D200F092D3005092E10018C05C2E539463
:100A60002196C83CD10551F6C092D000D092D10059
:100A7000E092D200F092D3005092E1001AC06624B6
:100A80006394712C03C066246394712C862D972D7A
:100A900010C00AE712E0C2E0D0E06894552451F893
:100AA0003ECF0AE712E0C2E0D0E06894552451F846
:100AB000A5CFDF91CF911F910F91FF90EF90DF9025
:100AC000CF90BF90AF909F908F907F906F905F90EE
:100AD00008952F923F924F925F926F927F928F92E2
:100AE0009F92AF92BF92CF92DF92EF92FF920F93BD
:100AF0001F93CF93DF93C090D400D090D500E090A7
:100B0000D600F090D7006091E6007091E70088274A
:100B100077FD8095982F0E943F0820E030E040EA62
:100B200050E40E94F30820E030E040E85AE30E94DD
:100B3000F308A70196010E946C0720E030E0A901AC
:100B40000E94EF0818160CF06FC081E08093E1005E
:100B50006091E8007091E900882777FD8095982FD3
:100B60000E943F0820E030E040EA50E40E94F30891
:100B700020E030E040E85AE30E94F308A701960124
:100B80000E946C076093CC007093CD008093CE00E0
:100B90009093CF0020E030E0A9010E94D107882384
:100BA0000CF0BFC0B4C06C2E7D2EF8016191719124
:100BB0008F01882777FD8095982F0E943F0820E0BD
:100BC00030E040EA50E40E94F30820E030E040E8E2
:100BD0005AE30E94F308A70196010E946C074B019B
:100BE0005C0120E030E0A9010E94D10788235CF479
:100BF0008092CC009092CD00A092CE00B092CF0017
:100C00005092E1008BC05C2E53942196C83CD105D4
:100C100051F68092CC009092CD00A092CE00B0927E
:100C2000CF005092E10072C081E08093E1006091BA
:100C3000E8007091E900882777FD8095982F0E9441
:100C40003F0820E030E040EA50E40E94F30820E052
:100C500030E040E85AE30E94F308A70196010E94A1
:100C60006C076093CC007093CD008093CE0090937E
:100C7000CF0020E030E0A901C701B6010E94EF08D3
:100C800018160CF056C047C06C2E7D2EF8016191ED
:100C900071918F01882777FD8095982F0E943F08DA
:100CA00020E030E040EA50E40E94F30820E030E029
:100CB00040E85AE30E94F308A70196010E946C07DE
:100CC0001B012C0120E030E0A901C701B6010E9400
:100CD000EF0818165CF42092CC003092CD004092C0
:100CE000CE005092CF00B092E10018C0BC2EB39459
:100CF0002196C83CD10541F62092CC003092CD001F
:100D00004092CE005092CF00B092E1001AC066240B
:100D10006394712C03C066246394712C862D972DE7
:100D200010C00AEE10E0C2E0D0E06894552451F8FB
:100D30003ACF0AEE10E0C2E0D0E06894BB24B1F8EC
:100D4000A3CFDF91CF911F910F91FF90EF90DF9094
:100D5000CF90BF90AF909F908F907F906F905F905B
:100D60004F903F902F9008950E942C010E943E01C9
:100D7000379A1DBC1CBC0E9428049093E500809308
:100D8000E4000E9469059093E3008093E2003798A5
:100D90002FE78DE89BE5215080409040E1F700C0AF
:100DA0000000379AE3CF2FEF209307042093060427
:100DB00090BD89B986E880BD88E98AB9789408959C
:100DC0001F920F920FB60F9211242F933F934F93C0
:100DD0008F939F93EF93FF934CB1809107048F33D0
:100DE00021F480910604882379F0209107048091F2
:100DF0000604332727FD30952F5F3F4F992787FD46
:100E000090952817390759F4809106048F5F8093D5
:100E1000060480910604803411F410920604809137
:100E200007048F3319F41092070405C0809107045A
:100E30008F5F80930704E0910704FF27E7FDF0959B
:100E4000E85FFB4F4083809106048F3F11F41092BE
:100E50000604FF91EF919F918F914F913F912F91B8
:100E60000F900FBE0F901F9018955D9BFECF8CB911
:100E70000895CF93DF93EC018881882331F0219688
:100E80000E94350789918111FBCF80E00E943507D0
:100E9000DF91CF9108950F931F93CF93DF93CDB739
:100EA000DEB72A970FB6F894DEBF0FBECDBF30E095
:100EB00050E08E010F5F1F4F0E94AD09C8010E94D4
:100EC00039072A960FB6F894DEBF0FBECDBFDF916B
:100ED000CF911F910F9108955058BB27AA270ED08C
:100EE00044C135D130F03AD120F031F49F3F11F4B4
:100EF0001EF42AC10EF4E095E7FB20C1E92F46D18C
:100F000080F3BA17620773078407950718F071F426
:100F10009EF55EC10EF4E0950B2EBA2FA02D0B01AD
:100F2000B90190010C01CA01A0011124FF27591B2E
:100F300099F0593F50F4503E68F11A16F040A22F34
:100F4000232F342F4427585FF3CF469537952795A5
:100F5000A795F0405395C9F77EF41F16BA0B620BA4
:100F6000730B840BBAF09150A1F0FF0FBB1F661FEB
:100F7000771F881FC2F70EC0BA0F621F731F841F2E
:100F800048F4879577956795B795F7959E3F08F054
:100F9000B3CF9395880F08F09927EE0F9795879513
:100FA0000895A8D008F481E008950CD0DEC0D6D012
:100FB00040F0CDD030F021F45F3F19F0BFC05111A7
:100FC00008C1C2C0E3D098F39923C9F35523B1F304
:100FD000951B550BBB27AA2762177307840738F0A8
:100FE0009F5F5F4F220F331F441FAA1FA9F333D007
:100FF0000E2E3AF0E0E830D091505040E695001CBB
:10100000CAF729D0FE2F27D0660F771F881FBB1F76
:10101000261737074807AB07B0E809F0BB0B802D50
:10102000BF01FF2793585F4F2AF09E3F510568F09C
:1010300085C0CFC05F3FECF3983EDCF38695779593
:101040006795B795F7959F5FC9F7880F911D96959E
:10105000879597F90895E1E0660F771F881FBB1FFA
:10106000621773078407BA0720F0621B730B840BA7
:10107000BA0BEE1F88F7E0950895E89409C097FB36
:101080003EF490958095709561957F4F8F4F9F4F5F
:101090009923A9F0F92F96E9BB279395F6958795A3
:1010A00077956795B795F111F8CFFAF4BB0F11F466
:1010B00060FF1BC06F5F7F4F8F4F9F4F16C088230D
:1010C00011F096E911C0772321F09EE8872F762F43
:1010D00005C0662371F096E8862F70E060E02AF084
:1010E0009A95660F771F881FDAF7880F9695879570
:1010F00097F90895990F0008550FAA0BE0E8FEEF45
:1011000016161706E807F907C0F012161306E407CB
:10111000F50798F0621B730B840B950B39F40A26C4
:1011200061F0232B242B252B21F408950A2609F4A2
:10113000A140A6958FEF811D811D089597F99F67A6
:1011400080E870E060E008959FEF80EC089500244F
:101150000A941616170618060906089500240A941C
:1011600012161306140605060895092E0394000CA2
:1011700011F4882352F0BB0F40F4BF2B11F460FF31
:1011800004C06F5F7F4F8F4F9F4F089557FD90585A
:10119000440F551F59F05F3F71F04795880F97FB3B
:1011A000991F61F09F3F79F08795089512161306F5
:1011B0001406551FF2CF4695F1DF08C01616170624
:1011C0001806991FF1CF8695710561050894089559
:1011D000E894BB2766277727CB0197F908958ADF24
:1011E00008F48FEF08950BD0C0CFB1DF28F0B6DF41
:1011F00018F0952309F0A2CFA7CF1124EACFC6DFBC
:10120000A0F3959FD1F3950F50E0551F629FF00119
:10121000729FBB27F00DB11D639FAA27F00DB11D72
:10122000AA1F649F6627B00DA11D661F829F2227FB
:10123000B00DA11D621F739FB00DA11D621F839F82
:10124000A00D611D221F749F3327A00D611D231F58
:10125000849F600D211D822F762F6A2F11249F57A6
:1012600050408AF0E1F088234AF0EE0FFF1FBB1FC9
:10127000661F771F881F91505040A9F79E3F510568
:1012800070F05CCFA6CF5F3FECF3983EDCF3869521
:1012900077956795B795F795E7959F5FC1F7FE2B13
:1012A000880F911D9695879597F9089511F40EF47E
:1012B0004BCF3EC073DFD0F39923D9F3CEF39F57C2
:1012C000550B87FF43D00024A0E640EA90018058E8
:1012D0005695979528F4805C660F771F881F20F03D
:1012E00026173707480730F4621B730B840B20293D
:1012F00031294A2BA69517940794202531254A2792
:1013000058F7660F771F881F20F026173707480702
:1013100030F4620B730B840B200D311D411DA09521
:1013200081F7B901842F9158880F96958795089574
:101330009F3F31F0915020F4879577956795B79549
:10134000880F911D9695879597F908959150504073
:10135000660F771F881FD2F70895EF920F931F93A0
:10136000CF93DF93E80147FF02C034E101C034E0CE
:10137000E42FFF27E7FDF095F7FF03C0F195E19516
:10138000F109E32E022F2E2FAE010E94CE09CE01CD
:10139000DF91CF911F910F91EF9008956F927F92FF
:1013A0009F92AF92BF92CF92DF92EF92FF920F93F4
:1013B0001F93CF93DF93CDB7DEB729970FB6F8947D
:1013C000DEBF0FBECDBF6A01B22E102F0C3320F44A
:1013D000FF24F394F00E02C04CE3F42E0F2D27E00F
:1013E000AE014F5F5F4F0E944C0B7981272F297010
:1013F000213031F0E1FC06C0E0FC06C060E005C031
:101400006DE203C06BE201C060E2AE2DA07173FF1C
:1014100036C0662311F084E001C083E08B1510F420
:10142000B81A01C0B12CA1110BC0F6018B2D90E2AE
:10143000882319F091938150FBCFCB0CD11CB12C98
:10144000662331F0F601608396012F5F3F4F6901FB
:10145000C6010396E2FE05C02EE4F601208331E4C6
:1014600004C02EE6F601208331E631832283FC019D
:101470002B2D30E22223F1F131932150FBCF72FF6B
:1014800040C0662311F084E001C083E08B1510F4A6
:10149000B81A01C0B12CA1110BC0F6018B2D90E23E
:1014A000882319F091938150FBCFCB0CD11CB12C28
:1014B000662331F0F601608396012F5F3F4F69018B
:1014C000C6010396E2FE07C029E4F60120832EE45C
:1014D000218326E406C029E6F60120832EE6218337
:1014E00026E62283FC012B2D30E2222319F03193D2
:1014F0002150FBCFFC01EB0DF11D10828EEF9FEF11
:10150000B7C0B1E0611101C0B0E04B2F50E0181638
:10151000190624F49C012F5F3F4F02C021E030E008
:10152000240F351F112329F0412F50E04F5F5F4FEB
:1015300002C040E050E0420F531F2B2D30E0421715
:10154000530714F4B41A01C0B12C2E2D287159F48C
:10155000F6012B2D30E2222319F031932150FBCFDD
:10156000CB0CD11CB12CBB2331F0F601608396016A
:101570002F5F3F4F6901A1110BC0F6012B2D30E306
:10158000222319F031932150FBCFCB0CD11CB12C6D
:10159000F80E0A81372F3071A32E74FF03C0013378
:1015A00009F4FA941F142CF42F2D293018F028E098
:1015B00001C021E0682F392F97FF02C060E030E0C2
:1015C000462F532F612C712C3EE2932EBC01621BDF
:1015D00071099B01DC01A41BB50BE1E0F0E0EC0F0D
:1015E000FD1FAE0FBF1FE12EF12CF194E194F10825
:1015F0004F3FFFEF5F0731F4F6019082B6016F5F56
:101600007F4F6B01841795074CF02417350734F48E
:10161000BD01660D771DFB01118101C010E3415032
:101620005109FFEF6F1A7F0AB6016F5F7F4F4E15AA
:101630005F0524F0F60110836B01DACF48175907D4
:1016400039F4063320F4053319F4A11001C011E375
:10165000F6011083FB018B2D90E2882319F0919302
:101660008150FBCFFB01EB0DF11D108280E090E07B
:1016700029960FB6F894DEBF0FBECDBFDF91CF9194
:101680001F910F91FF90EF90DF90CF90BF90AF90A0
:101690009F907F906F900895283008F027E03327BF
:1016A000DA01990F311D87FD916000966105710582
:1016B00039F432602E5F3D9330E32A95E1F70895C7
:1016C0009F3F30F080387105610509F03C5F3C5F59
:1016D0003D93913008F08068911DDF93CF931F9365
:1016E0000F93FF92EF92192F987F9695E92F969579
:1016F0009695E90FFF27E255FF4F99273327EE24F0
:10170000FF24A701E70105900894079428F4360FF9
:10171000E71EF81E491F511D660F771F881F991F6E
:101720000694A1F70590079428F4E70EF81E491FC8
:10173000561FC11D770F881F991F661F0694A1F7BA
:101740000590079428F4F80E491F561FC71FD11D96
:10175000880F991F661F771F0694A1F705900794BD
:1017600020F4490F561FC71FD81F990F661F771FF8
:10177000881F0694A9F784911095177041F0D695AB
:10178000C79557954795F794E7941A95C1F7E4E5FF
:10179000F0E06894159015913591659195910590BB
:1017A0007FE27395E118F10A430B560BC90BD00980
:1017B000C0F7E10CF11E431F561FC91FD01D7EF458
:1017C000703311F48A95E6CFE894015030F0080F99
:1017D0000AF40027021708F4202F2395022F7A33EA
:1017E00028F079E37D932A95E9F710C07D932A9537
:1017F00089F6069497956795379517951794E1188C
:10180000F10A430B560BC90BD00998F023957E9132
:1018100073957A3308F070E37C932013B8F77E91C8
:1018200070617D9330F0839571E37D9370E32A9529
:10183000E1F71124EF90FF900F911F91CF91DF916D
:0C184000992787FD90950895F894FFCF3C
:10184C000A20766F6C74616765200A0009000A2013
:10185C0043757272656E74200A000A2056726D739D
:10186C00203D200056000949726D73203D20006D0B
:10187C00410009506F776572203D200057000950D8
:10188C006F77657220666163746F72203D20000073
:00000001FF
